{
  "_format": "hh-sol-artifact-1",
  "contractName": "NFTCollection",
  "sourceName": "contracts/NFTCollection.sol",
  "abi": [
    {
      "inputs": [
        {
          "internalType": "string",
          "name": "name_",
          "type": "string"
        },
        {
          "internalType": "string",
          "name": "symbol_",
          "type": "string"
        },
        {
          "internalType": "uint256",
          "name": "_maxNFTs",
          "type": "uint256"
        },
        {
          "internalType": "uint256",
          "name": "_mintWindowStart",
          "type": "uint256"
        },
        {
          "internalType": "uint256",
          "name": "_mintWindowEnd",
          "type": "uint256"
        }
      ],
      "stateMutability": "nonpayable",
      "type": "constructor"
    },
    {
      "anonymous": false,
      "inputs": [
        {
          "indexed": true,
          "internalType": "address",
          "name": "owner",
          "type": "address"
        },
        {
          "indexed": true,
          "internalType": "address",
          "name": "approved",
          "type": "address"
        },
        {
          "indexed": true,
          "internalType": "uint256",
          "name": "tokenId",
          "type": "uint256"
        }
      ],
      "name": "Approval",
      "type": "event"
    },
    {
      "anonymous": false,
      "inputs": [
        {
          "indexed": true,
          "internalType": "address",
          "name": "owner",
          "type": "address"
        },
        {
          "indexed": true,
          "internalType": "address",
          "name": "operator",
          "type": "address"
        },
        {
          "indexed": false,
          "internalType": "bool",
          "name": "approved",
          "type": "bool"
        }
      ],
      "name": "ApprovalForAll",
      "type": "event"
    },
    {
      "anonymous": false,
      "inputs": [
        {
          "indexed": false,
          "internalType": "uint256",
          "name": "tokenId",
          "type": "uint256"
        },
        {
          "indexed": false,
          "internalType": "string",
          "name": "tokenURI",
          "type": "string"
        }
      ],
      "name": "Minted",
      "type": "event"
    },
    {
      "anonymous": false,
      "inputs": [
        {
          "indexed": true,
          "internalType": "address",
          "name": "previousOwner",
          "type": "address"
        },
        {
          "indexed": true,
          "internalType": "address",
          "name": "newOwner",
          "type": "address"
        }
      ],
      "name": "OwnershipTransferred",
      "type": "event"
    },
    {
      "anonymous": false,
      "inputs": [
        {
          "indexed": true,
          "internalType": "address",
          "name": "from",
          "type": "address"
        },
        {
          "indexed": true,
          "internalType": "address",
          "name": "to",
          "type": "address"
        },
        {
          "indexed": true,
          "internalType": "uint256",
          "name": "tokenId",
          "type": "uint256"
        }
      ],
      "name": "Transfer",
      "type": "event"
    },
    {
      "inputs": [
        {
          "internalType": "address",
          "name": "to",
          "type": "address"
        },
        {
          "internalType": "uint256",
          "name": "tokenId",
          "type": "uint256"
        }
      ],
      "name": "approve",
      "outputs": [],
      "stateMutability": "nonpayable",
      "type": "function"
    },
    {
      "inputs": [
        {
          "internalType": "address",
          "name": "owner",
          "type": "address"
        }
      ],
      "name": "balanceOf",
      "outputs": [
        {
          "internalType": "uint256",
          "name": "",
          "type": "uint256"
        }
      ],
      "stateMutability": "view",
      "type": "function"
    },
    {
      "inputs": [
        {
          "internalType": "uint256",
          "name": "tokenId",
          "type": "uint256"
        }
      ],
      "name": "getApproved",
      "outputs": [
        {
          "internalType": "address",
          "name": "",
          "type": "address"
        }
      ],
      "stateMutability": "view",
      "type": "function"
    },
    {
      "inputs": [],
      "name": "getCurrentToken",
      "outputs": [
        {
          "internalType": "uint256",
          "name": "",
          "type": "uint256"
        }
      ],
      "stateMutability": "view",
      "type": "function"
    },
    {
      "inputs": [],
      "name": "getMyNFT",
      "outputs": [
        {
          "internalType": "uint256",
          "name": "",
          "type": "uint256"
        }
      ],
      "stateMutability": "view",
      "type": "function"
    },
    {
      "inputs": [],
      "name": "hasMinted",
      "outputs": [
        {
          "internalType": "bool",
          "name": "",
          "type": "bool"
        }
      ],
      "stateMutability": "view",
      "type": "function"
    },
    {
      "inputs": [
        {
          "internalType": "address",
          "name": "owner",
          "type": "address"
        },
        {
          "internalType": "address",
          "name": "operator",
          "type": "address"
        }
      ],
      "name": "isApprovedForAll",
      "outputs": [
        {
          "internalType": "bool",
          "name": "",
          "type": "bool"
        }
      ],
      "stateMutability": "view",
      "type": "function"
    },
    {
      "inputs": [],
      "name": "maxNFTs",
      "outputs": [
        {
          "internalType": "uint256",
          "name": "",
          "type": "uint256"
        }
      ],
      "stateMutability": "view",
      "type": "function"
    },
    {
      "inputs": [
        {
          "internalType": "string",
          "name": "tokenURI",
          "type": "string"
        }
      ],
      "name": "mintNFT",
      "outputs": [
        {
          "internalType": "uint256",
          "name": "",
          "type": "uint256"
        }
      ],
      "stateMutability": "nonpayable",
      "type": "function"
    },
    {
      "inputs": [],
      "name": "mintWindowEnd",
      "outputs": [
        {
          "internalType": "uint256",
          "name": "",
          "type": "uint256"
        }
      ],
      "stateMutability": "view",
      "type": "function"
    },
    {
      "inputs": [],
      "name": "mintWindowStart",
      "outputs": [
        {
          "internalType": "uint256",
          "name": "",
          "type": "uint256"
        }
      ],
      "stateMutability": "view",
      "type": "function"
    },
    {
      "inputs": [],
      "name": "name",
      "outputs": [
        {
          "internalType": "string",
          "name": "",
          "type": "string"
        }
      ],
      "stateMutability": "view",
      "type": "function"
    },
    {
      "inputs": [],
      "name": "owner",
      "outputs": [
        {
          "internalType": "address",
          "name": "",
          "type": "address"
        }
      ],
      "stateMutability": "view",
      "type": "function"
    },
    {
      "inputs": [
        {
          "internalType": "uint256",
          "name": "tokenId",
          "type": "uint256"
        }
      ],
      "name": "ownerOf",
      "outputs": [
        {
          "internalType": "address",
          "name": "",
          "type": "address"
        }
      ],
      "stateMutability": "view",
      "type": "function"
    },
    {
      "inputs": [],
      "name": "renounceOwnership",
      "outputs": [],
      "stateMutability": "nonpayable",
      "type": "function"
    },
    {
      "inputs": [
        {
          "internalType": "address",
          "name": "from",
          "type": "address"
        },
        {
          "internalType": "address",
          "name": "to",
          "type": "address"
        },
        {
          "internalType": "uint256",
          "name": "tokenId",
          "type": "uint256"
        }
      ],
      "name": "safeTransferFrom",
      "outputs": [],
      "stateMutability": "nonpayable",
      "type": "function"
    },
    {
      "inputs": [
        {
          "internalType": "address",
          "name": "from",
          "type": "address"
        },
        {
          "internalType": "address",
          "name": "to",
          "type": "address"
        },
        {
          "internalType": "uint256",
          "name": "tokenId",
          "type": "uint256"
        },
        {
          "internalType": "bytes",
          "name": "data",
          "type": "bytes"
        }
      ],
      "name": "safeTransferFrom",
      "outputs": [],
      "stateMutability": "nonpayable",
      "type": "function"
    },
    {
      "inputs": [
        {
          "internalType": "address",
          "name": "operator",
          "type": "address"
        },
        {
          "internalType": "bool",
          "name": "approved",
          "type": "bool"
        }
      ],
      "name": "setApprovalForAll",
      "outputs": [],
      "stateMutability": "nonpayable",
      "type": "function"
    },
    {
      "inputs": [
        {
          "internalType": "bytes4",
          "name": "interfaceId",
          "type": "bytes4"
        }
      ],
      "name": "supportsInterface",
      "outputs": [
        {
          "internalType": "bool",
          "name": "",
          "type": "bool"
        }
      ],
      "stateMutability": "view",
      "type": "function"
    },
    {
      "inputs": [],
      "name": "symbol",
      "outputs": [
        {
          "internalType": "string",
          "name": "",
          "type": "string"
        }
      ],
      "stateMutability": "view",
      "type": "function"
    },
    {
      "inputs": [
        {
          "internalType": "uint256",
          "name": "tokenId",
          "type": "uint256"
        }
      ],
      "name": "tokenURI",
      "outputs": [
        {
          "internalType": "string",
          "name": "",
          "type": "string"
        }
      ],
      "stateMutability": "view",
      "type": "function"
    },
    {
      "inputs": [
        {
          "internalType": "address",
          "name": "from",
          "type": "address"
        },
        {
          "internalType": "address",
          "name": "to",
          "type": "address"
        },
        {
          "internalType": "uint256",
          "name": "tokenId",
          "type": "uint256"
        }
      ],
      "name": "transferFrom",
      "outputs": [],
      "stateMutability": "nonpayable",
      "type": "function"
    },
    {
      "inputs": [
        {
          "internalType": "address",
          "name": "newOwner",
          "type": "address"
        }
      ],
      "name": "transferOwnership",
      "outputs": [],
      "stateMutability": "nonpayable",
      "type": "function"
    }
  ],
  "bytecode": "0x60806040523480156200001157600080fd5b5060405162003d6d38038062003d6d8339818101604052810190620000379190620003f3565b848481600090816200004a9190620006fa565b5080600190816200005c9190620006fa565b5050506200007f620000736200013960201b60201c565b6200014160201b60201c565b6200009182826200020760201b60201c565b620000d3576040517f08c379a0000000000000000000000000000000000000000000000000000000008152600401620000ca9062000842565b60405180910390fd5b6000831162000119576040517f08c379a00000000000000000000000000000000000000000000000000000000081526004016200011090620008b4565b60405180910390fd5b8260098190555081600a8190555080600b819055505050505050620008d6565b600033905090565b6000600760009054906101000a900473ffffffffffffffffffffffffffffffffffffffff16905081600760006101000a81548173ffffffffffffffffffffffffffffffffffffffff021916908373ffffffffffffffffffffffffffffffffffffffff1602179055508173ffffffffffffffffffffffffffffffffffffffff168173ffffffffffffffffffffffffffffffffffffffff167f8be0079c531659141344cd1fd0a4f28419497f9722a3daafe3b4186f6b6457e060405160405180910390a35050565b60008042905082841080156200021c57508281105b91505092915050565b6000604051905090565b600080fd5b600080fd5b600080fd5b600080fd5b6000601f19601f8301169050919050565b7f4e487b7100000000000000000000000000000000000000000000000000000000600052604160045260246000fd5b6200028e8262000243565b810181811067ffffffffffffffff82111715620002b057620002af62000254565b5b80604052505050565b6000620002c562000225565b9050620002d3828262000283565b919050565b600067ffffffffffffffff821115620002f657620002f562000254565b5b620003018262000243565b9050602081019050919050565b60005b838110156200032e57808201518184015260208101905062000311565b60008484015250505050565b6000620003516200034b84620002d8565b620002b9565b90508281526020810184848401111562000370576200036f6200023e565b5b6200037d8482856200030e565b509392505050565b600082601f8301126200039d576200039c62000239565b5b8151620003af8482602086016200033a565b91505092915050565b6000819050919050565b620003cd81620003b8565b8114620003d957600080fd5b50565b600081519050620003ed81620003c2565b92915050565b600080600080600060a086880312156200041257620004116200022f565b5b600086015167ffffffffffffffff81111562000433576200043262000234565b5b620004418882890162000385565b955050602086015167ffffffffffffffff81111562000465576200046462000234565b5b620004738882890162000385565b94505060406200048688828901620003dc565b93505060606200049988828901620003dc565b9250506080620004ac88828901620003dc565b9150509295509295909350565b600081519050919050565b7f4e487b7100000000000000000000000000000000000000000000000000000000600052602260045260246000fd5b600060028204905060018216806200050c57607f821691505b602082108103620005225762000521620004c4565b5b50919050565b60008190508160005260206000209050919050565b60006020601f8301049050919050565b600082821b905092915050565b6000600883026200058c7fffffffffffffffffffffffffffffffffffffffffffffffffffffffffffffffff826200054d565b6200059886836200054d565b95508019841693508086168417925050509392505050565b6000819050919050565b6000620005db620005d5620005cf84620003b8565b620005b0565b620003b8565b9050919050565b6000819050919050565b620005f783620005ba565b6200060f6200060682620005e2565b8484546200055a565b825550505050565b600090565b6200062662000617565b62000633818484620005ec565b505050565b5b818110156200065b576200064f6000826200061c565b60018101905062000639565b5050565b601f821115620006aa57620006748162000528565b6200067f846200053d565b810160208510156200068f578190505b620006a76200069e856200053d565b83018262000638565b50505b505050565b600082821c905092915050565b6000620006cf60001984600802620006af565b1980831691505092915050565b6000620006ea8383620006bc565b9150826002028217905092915050565b6200070582620004b9565b67ffffffffffffffff81111562000721576200072062000254565b5b6200072d8254620004f3565b6200073a8282856200065f565b600060209050601f8311600181146200077257600084156200075d578287015190505b620007698582620006dc565b865550620007d9565b601f198416620007828662000528565b60005b82811015620007ac5784890151825560018201915060208501945060208101905062000785565b86831015620007cc5784890151620007c8601f891682620006bc565b8355505b6001600288020188555050505b505050505050565b600082825260208201905092915050565b7f496e76616c69642074696d652077696e646f7700000000000000000000000000600082015250565b60006200082a601383620007e1565b91506200083782620007f2565b602082019050919050565b600060208201905081810360008301526200085d816200081b565b9050919050565b7f496e76616c6964206d61784e46542076616c7565000000000000000000000000600082015250565b60006200089c601483620007e1565b9150620008a98262000864565b602082019050919050565b60006020820190508181036000830152620008cf816200088d565b9050919050565b61348780620008e66000396000f3fe608060405234801561001057600080fd5b506004361061014d5760003560e01c8063715018a6116100c3578063c87b56dd1161007c578063c87b56dd1461037a578063cad7d033146103aa578063e985e9c5146103c8578063ef2d1746146103f8578063f2fde38b14610416578063fb37e883146104325761014d565b8063715018a6146102de5780638da5cb5b146102e857806395d89b41146103065780639ea17dcd14610324578063a22cb46514610342578063b88d4fde1461035e5761014d565b806323b872dd1161011557806323b872dd1461020a578063274d9b851461022657806342842e0e146102445780634e9e1ec6146102605780636352211e1461027e57806370a08231146102ae5761014d565b806301ffc9a71461015257806306fdde0314610182578063081812fc146101a0578063095ea7b3146101d057806322ef6975146101ec575b600080fd5b61016c6004803603810190610167919061206c565b610462565b60405161017991906120b4565b60405180910390f35b61018a610544565b604051610197919061215f565b60405180910390f35b6101ba60048036038101906101b591906121b7565b6105d6565b6040516101c79190612225565b60405180910390f35b6101ea60048036038101906101e5919061226c565b61061c565b005b6101f4610733565b60405161020191906120b4565b60405180910390f35b610224600480360381019061021f91906122ac565b610787565b005b61022e6107e7565b60405161023b919061230e565b60405180910390f35b61025e600480360381019061025991906122ac565b6107ed565b005b61026861080d565b604051610275919061230e565b60405180910390f35b610298600480360381019061029391906121b7565b610813565b6040516102a59190612225565b60405180910390f35b6102c860048036038101906102c39190612329565b610899565b6040516102d5919061230e565b60405180910390f35b6102e6610950565b005b6102f0610964565b6040516102fd9190612225565b60405180910390f35b61030e61098e565b60405161031b919061215f565b60405180910390f35b61032c610a20565b604051610339919061230e565b60405180910390f35b61035c60048036038101906103579190612382565b610a26565b005b610378600480360381019061037391906124f7565b610a3c565b005b610394600480360381019061038f91906121b7565b610a9e565b6040516103a1919061215f565b60405180910390f35b6103b2610bb0565b6040516103bf919061230e565b60405180910390f35b6103e260048036038101906103dd919061257a565b610c6f565b6040516103ef91906120b4565b60405180910390f35b610400610d03565b60405161040d919061230e565b60405180910390f35b610430600480360381019061042b9190612329565b610d14565b005b61044c6004803603810190610447919061265b565b610d97565b604051610459919061230e565b60405180910390f35b60007f80ac58cd000000000000000000000000000000000000000000000000000000007bffffffffffffffffffffffffffffffffffffffffffffffffffffffff1916827bffffffffffffffffffffffffffffffffffffffffffffffffffffffff1916148061052d57507f5b5e139f000000000000000000000000000000000000000000000000000000007bffffffffffffffffffffffffffffffffffffffffffffffffffffffff1916827bffffffffffffffffffffffffffffffffffffffffffffffffffffffff1916145b8061053d575061053c82610fd8565b5b9050919050565b606060008054610553906126d3565b80601f016020809104026020016040519081016040528092919081815260200182805461057f906126d3565b80156105cc5780601f106105a1576101008083540402835291602001916105cc565b820191906000526020600020905b8154815290600101906020018083116105af57829003601f168201915b5050505050905090565b60006105e182611042565b6004600083815260200190815260200160002060009054906101000a900473ffffffffffffffffffffffffffffffffffffffff169050919050565b600061062782610813565b90508073ffffffffffffffffffffffffffffffffffffffff168373ffffffffffffffffffffffffffffffffffffffff1603610697576040517f08c379a000000000000000000000000000000000000000000000000000000000815260040161068e90612776565b60405180910390fd5b8073ffffffffffffffffffffffffffffffffffffffff166106b661108d565b73ffffffffffffffffffffffffffffffffffffffff1614806106e557506106e4816106df61108d565b610c6f565b5b610724576040517f08c379a000000000000000000000000000000000000000000000000000000000815260040161071b90612808565b60405180910390fd5b61072e8383611095565b505050565b6000600c60003373ffffffffffffffffffffffffffffffffffffffff1673ffffffffffffffffffffffffffffffffffffffff16815260200190815260200160002060009054906101000a900460ff16905090565b61079861079261108d565b8261114e565b6107d7576040517f08c379a00000000000000000000000000000000000000000000000000000000081526004016107ce9061289a565b60405180910390fd5b6107e28383836111e3565b505050565b600a5481565b61080883838360405180602001604052806000815250610a3c565b505050565b60095481565b60008061081f836114dc565b9050600073ffffffffffffffffffffffffffffffffffffffff168173ffffffffffffffffffffffffffffffffffffffff1603610890576040517f08c379a000000000000000000000000000000000000000000000000000000000815260040161088790612906565b60405180910390fd5b80915050919050565b60008073ffffffffffffffffffffffffffffffffffffffff168273ffffffffffffffffffffffffffffffffffffffff1603610909576040517f08c379a000000000000000000000000000000000000000000000000000000000815260040161090090612998565b60405180910390fd5b600360008373ffffffffffffffffffffffffffffffffffffffff1673ffffffffffffffffffffffffffffffffffffffff168152602001908152602001600020549050919050565b610958611519565b6109626000611597565b565b6000600760009054906101000a900473ffffffffffffffffffffffffffffffffffffffff16905090565b60606001805461099d906126d3565b80601f01602080910402602001604051908101604052809291908181526020018280546109c9906126d3565b8015610a165780601f106109eb57610100808354040283529160200191610a16565b820191906000526020600020905b8154815290600101906020018083116109f957829003601f168201915b5050505050905090565b600b5481565b610a38610a3161108d565b838361165d565b5050565b610a4d610a4761108d565b8361114e565b610a8c576040517f08c379a0000000000000000000000000000000000000000000000000000000008152600401610a839061289a565b60405180910390fd5b610a98848484846117c9565b50505050565b6060610aa982611042565b6000600660008481526020019081526020016000208054610ac9906126d3565b80601f0160208091040260200160405190810160405280929190818152602001828054610af5906126d3565b8015610b425780601f10610b1757610100808354040283529160200191610b42565b820191906000526020600020905b815481529060010190602001808311610b2557829003601f168201915b505050505090506000610b53611825565b90506000815103610b68578192505050610bab565b600082511115610b9d578082604051602001610b859291906129f4565b60405160208183030381529060405292505050610bab565b610ba68461183c565b925050505b919050565b600080610bbd60086118a4565b905060005b81811015610c65573373ffffffffffffffffffffffffffffffffffffffff16600d6000600184610bf29190612a47565b815260200190815260200160002060009054906101000a900473ffffffffffffffffffffffffffffffffffffffff1673ffffffffffffffffffffffffffffffffffffffff1603610c5257600181610c499190612a47565b92505050610c6c565b8080610c5d90612a7b565b915050610bc2565b5060009150505b90565b6000600560008473ffffffffffffffffffffffffffffffffffffffff1673ffffffffffffffffffffffffffffffffffffffff16815260200190815260200160002060008373ffffffffffffffffffffffffffffffffffffffff1673ffffffffffffffffffffffffffffffffffffffff16815260200190815260200160002060009054906101000a900460ff16905092915050565b6000610d0f60086118a4565b905090565b610d1c611519565b600073ffffffffffffffffffffffffffffffffffffffff168173ffffffffffffffffffffffffffffffffffffffff1603610d8b576040517f08c379a0000000000000000000000000000000000000000000000000000000008152600401610d8290612b35565b60405180910390fd5b610d9481611597565b50565b6000610da7600a54600b546118b2565b610de6576040517f08c379a0000000000000000000000000000000000000000000000000000000008152600401610ddd90612ba1565b60405180910390fd5b600c60003373ffffffffffffffffffffffffffffffffffffffff1673ffffffffffffffffffffffffffffffffffffffff16815260200190815260200160002060009054906101000a900460ff1615610e73576040517f08c379a0000000000000000000000000000000000000000000000000000000008152600401610e6a90612c0d565b60405180910390fd5b600954610e8060086118a4565b10610ec0576040517f08c379a0000000000000000000000000000000000000000000000000000000008152600401610eb790612c79565b60405180910390fd5b610eca60086118cf565b6000610ed660086118a4565b9050610ee233826118e5565b610eec8184611903565b6001600c60003373ffffffffffffffffffffffffffffffffffffffff1673ffffffffffffffffffffffffffffffffffffffff16815260200190815260200160002060006101000a81548160ff02191690831515021790555033600d600083815260200190815260200160002060006101000a81548173ffffffffffffffffffffffffffffffffffffffff021916908373ffffffffffffffffffffffffffffffffffffffff1602179055507fadef11a3979b8ceb0573eb6ef0678134a09c23a0d94e5ea47cd18ac3a9fc01948184604051610fc7929190612c99565b60405180910390a180915050919050565b60007f01ffc9a7000000000000000000000000000000000000000000000000000000007bffffffffffffffffffffffffffffffffffffffffffffffffffffffff1916827bffffffffffffffffffffffffffffffffffffffffffffffffffffffff1916149050919050565b61104b81611970565b61108a576040517f08c379a000000000000000000000000000000000000000000000000000000000815260040161108190612906565b60405180910390fd5b50565b600033905090565b816004600083815260200190815260200160002060006101000a81548173ffffffffffffffffffffffffffffffffffffffff021916908373ffffffffffffffffffffffffffffffffffffffff160217905550808273ffffffffffffffffffffffffffffffffffffffff1661110883610813565b73ffffffffffffffffffffffffffffffffffffffff167f8c5be1e5ebec7d5bd14f71427d1e84f3dd0314c0f7b2291e5b200ac8c7c3b92560405160405180910390a45050565b60008061115a83610813565b90508073ffffffffffffffffffffffffffffffffffffffff168473ffffffffffffffffffffffffffffffffffffffff16148061119c575061119b8185610c6f565b5b806111da57508373ffffffffffffffffffffffffffffffffffffffff166111c2846105d6565b73ffffffffffffffffffffffffffffffffffffffff16145b91505092915050565b8273ffffffffffffffffffffffffffffffffffffffff1661120382610813565b73ffffffffffffffffffffffffffffffffffffffff1614611259576040517f08c379a000000000000000000000000000000000000000000000000000000000815260040161125090612d3b565b60405180910390fd5b600073ffffffffffffffffffffffffffffffffffffffff168273ffffffffffffffffffffffffffffffffffffffff16036112c8576040517f08c379a00000000000000000000000000000000000000000000000000000000081526004016112bf90612dcd565b60405180910390fd5b6112d583838360016119b1565b8273ffffffffffffffffffffffffffffffffffffffff166112f582610813565b73ffffffffffffffffffffffffffffffffffffffff161461134b576040517f08c379a000000000000000000000000000000000000000000000000000000000815260040161134290612d3b565b60405180910390fd5b6004600082815260200190815260200160002060006101000a81549073ffffffffffffffffffffffffffffffffffffffff02191690556001600360008573ffffffffffffffffffffffffffffffffffffffff1673ffffffffffffffffffffffffffffffffffffffff168152602001908152602001600020600082825403925050819055506001600360008473ffffffffffffffffffffffffffffffffffffffff1673ffffffffffffffffffffffffffffffffffffffff16815260200190815260200160002060008282540192505081905550816002600083815260200190815260200160002060006101000a81548173ffffffffffffffffffffffffffffffffffffffff021916908373ffffffffffffffffffffffffffffffffffffffff160217905550808273ffffffffffffffffffffffffffffffffffffffff168473ffffffffffffffffffffffffffffffffffffffff167fddf252ad1be2c89b69c2b068fc378daa952ba7f163c4a11628f55a4df523b3ef60405160405180910390a46114d783838360016119b7565b505050565b60006002600083815260200190815260200160002060009054906101000a900473ffffffffffffffffffffffffffffffffffffffff169050919050565b61152161108d565b73ffffffffffffffffffffffffffffffffffffffff1661153f610964565b73ffffffffffffffffffffffffffffffffffffffff1614611595576040517f08c379a000000000000000000000000000000000000000000000000000000000815260040161158c90612e39565b60405180910390fd5b565b6000600760009054906101000a900473ffffffffffffffffffffffffffffffffffffffff16905081600760006101000a81548173ffffffffffffffffffffffffffffffffffffffff021916908373ffffffffffffffffffffffffffffffffffffffff1602179055508173ffffffffffffffffffffffffffffffffffffffff168173ffffffffffffffffffffffffffffffffffffffff167f8be0079c531659141344cd1fd0a4f28419497f9722a3daafe3b4186f6b6457e060405160405180910390a35050565b8173ffffffffffffffffffffffffffffffffffffffff168373ffffffffffffffffffffffffffffffffffffffff16036116cb576040517f08c379a00000000000000000000000000000000000000000000000000000000081526004016116c290612ea5565b60405180910390fd5b80600560008573ffffffffffffffffffffffffffffffffffffffff1673ffffffffffffffffffffffffffffffffffffffff16815260200190815260200160002060008473ffffffffffffffffffffffffffffffffffffffff1673ffffffffffffffffffffffffffffffffffffffff16815260200190815260200160002060006101000a81548160ff0219169083151502179055508173ffffffffffffffffffffffffffffffffffffffff168373ffffffffffffffffffffffffffffffffffffffff167f17307eab39ab6107e8899845ad3d59bd9653f200f220920489ca2b5937696c31836040516117bc91906120b4565b60405180910390a3505050565b6117d48484846111e3565b6117e0848484846119bd565b61181f576040517f08c379a000000000000000000000000000000000000000000000000000000000815260040161181690612f37565b60405180910390fd5b50505050565b606060405180602001604052806000815250905090565b606061184782611042565b6000611851611825565b90506000815111611871576040518060200160405280600081525061189c565b8061187b84611b44565b60405160200161188c9291906129f4565b6040516020818303038152906040525b915050919050565b600081600001549050919050565b60008042905082841080156118c657508281105b91505092915050565b6001816000016000828254019250508190555050565b6118ff828260405180602001604052806000815250611c12565b5050565b61190c82611970565b61194b576040517f08c379a000000000000000000000000000000000000000000000000000000000815260040161194290612fc9565b60405180910390fd5b8060066000848152602001908152602001600020908161196b9190613195565b505050565b60008073ffffffffffffffffffffffffffffffffffffffff16611992836114dc565b73ffffffffffffffffffffffffffffffffffffffff1614159050919050565b50505050565b50505050565b60006119de8473ffffffffffffffffffffffffffffffffffffffff16611c6d565b15611b37578373ffffffffffffffffffffffffffffffffffffffff1663150b7a02611a0761108d565b8786866040518563ffffffff1660e01b8152600401611a2994939291906132bc565b6020604051808303816000875af1925050508015611a6557506040513d601f19601f82011682018060405250810190611a62919061331d565b60015b611ae7573d8060008114611a95576040519150601f19603f3d011682016040523d82523d6000602084013e611a9a565b606091505b506000815103611adf576040517f08c379a0000000000000000000000000000000000000000000000000000000008152600401611ad690612f37565b60405180910390fd5b805181602001fd5b63150b7a0260e01b7bffffffffffffffffffffffffffffffffffffffffffffffffffffffff1916817bffffffffffffffffffffffffffffffffffffffffffffffffffffffff191614915050611b3c565b600190505b949350505050565b606060006001611b5384611c90565b01905060008167ffffffffffffffff811115611b7257611b716123cc565b5b6040519080825280601f01601f191660200182016040528015611ba45781602001600182028036833780820191505090505b509050600082602001820190505b600115611c07578080600190039150507f3031323334353637383961626364656600000000000000000000000000000000600a86061a8153600a8581611bfb57611bfa61334a565b5b04945060008503611bb2575b819350505050919050565b611c1c8383611de3565b611c2960008484846119bd565b611c68576040517f08c379a0000000000000000000000000000000000000000000000000000000008152600401611c5f90612f37565b60405180910390fd5b505050565b6000808273ffffffffffffffffffffffffffffffffffffffff163b119050919050565b600080600090507a184f03e93ff9f4daa797ed6e38ed64bf6a1f0100000000000000008310611cee577a184f03e93ff9f4daa797ed6e38ed64bf6a1f0100000000000000008381611ce457611ce361334a565b5b0492506040810190505b6d04ee2d6d415b85acef81000000008310611d2b576d04ee2d6d415b85acef81000000008381611d2157611d2061334a565b5b0492506020810190505b662386f26fc100008310611d5a57662386f26fc100008381611d5057611d4f61334a565b5b0492506010810190505b6305f5e1008310611d83576305f5e1008381611d7957611d7861334a565b5b0492506008810190505b6127108310611da8576127108381611d9e57611d9d61334a565b5b0492506004810190505b60648310611dcb5760648381611dc157611dc061334a565b5b0492506002810190505b600a8310611dda576001810190505b80915050919050565b600073ffffffffffffffffffffffffffffffffffffffff168273ffffffffffffffffffffffffffffffffffffffff1603611e52576040517f08c379a0000000000000000000000000000000000000000000000000000000008152600401611e49906133c5565b60405180910390fd5b611e5b81611970565b15611e9b576040517f08c379a0000000000000000000000000000000000000000000000000000000008152600401611e9290613431565b60405180910390fd5b611ea96000838360016119b1565b611eb281611970565b15611ef2576040517f08c379a0000000000000000000000000000000000000000000000000000000008152600401611ee990613431565b60405180910390fd5b6001600360008473ffffffffffffffffffffffffffffffffffffffff1673ffffffffffffffffffffffffffffffffffffffff16815260200190815260200160002060008282540192505081905550816002600083815260200190815260200160002060006101000a81548173ffffffffffffffffffffffffffffffffffffffff021916908373ffffffffffffffffffffffffffffffffffffffff160217905550808273ffffffffffffffffffffffffffffffffffffffff16600073ffffffffffffffffffffffffffffffffffffffff167fddf252ad1be2c89b69c2b068fc378daa952ba7f163c4a11628f55a4df523b3ef60405160405180910390a4611ffc6000838360016119b7565b5050565b6000604051905090565b600080fd5b600080fd5b60007fffffffff0000000000000000000000000000000000000000000000000000000082169050919050565b61204981612014565b811461205457600080fd5b50565b60008135905061206681612040565b92915050565b6000602082840312156120825761208161200a565b5b600061209084828501612057565b91505092915050565b60008115159050919050565b6120ae81612099565b82525050565b60006020820190506120c960008301846120a5565b92915050565b600081519050919050565b600082825260208201905092915050565b60005b838110156121095780820151818401526020810190506120ee565b60008484015250505050565b6000601f19601f8301169050919050565b6000612131826120cf565b61213b81856120da565b935061214b8185602086016120eb565b61215481612115565b840191505092915050565b600060208201905081810360008301526121798184612126565b905092915050565b6000819050919050565b61219481612181565b811461219f57600080fd5b50565b6000813590506121b18161218b565b92915050565b6000602082840312156121cd576121cc61200a565b5b60006121db848285016121a2565b91505092915050565b600073ffffffffffffffffffffffffffffffffffffffff82169050919050565b600061220f826121e4565b9050919050565b61221f81612204565b82525050565b600060208201905061223a6000830184612216565b92915050565b61224981612204565b811461225457600080fd5b50565b60008135905061226681612240565b92915050565b600080604083850312156122835761228261200a565b5b600061229185828601612257565b92505060206122a2858286016121a2565b9150509250929050565b6000806000606084860312156122c5576122c461200a565b5b60006122d386828701612257565b93505060206122e486828701612257565b92505060406122f5868287016121a2565b9150509250925092565b61230881612181565b82525050565b600060208201905061232360008301846122ff565b92915050565b60006020828403121561233f5761233e61200a565b5b600061234d84828501612257565b91505092915050565b61235f81612099565b811461236a57600080fd5b50565b60008135905061237c81612356565b92915050565b600080604083850312156123995761239861200a565b5b60006123a785828601612257565b92505060206123b88582860161236d565b9150509250929050565b600080fd5b600080fd5b7f4e487b7100000000000000000000000000000000000000000000000000000000600052604160045260246000fd5b61240482612115565b810181811067ffffffffffffffff82111715612423576124226123cc565b5b80604052505050565b6000612436612000565b905061244282826123fb565b919050565b600067ffffffffffffffff821115612462576124616123cc565b5b61246b82612115565b9050602081019050919050565b82818337600083830152505050565b600061249a61249584612447565b61242c565b9050828152602081018484840111156124b6576124b56123c7565b5b6124c1848285612478565b509392505050565b600082601f8301126124de576124dd6123c2565b5b81356124ee848260208601612487565b91505092915050565b600080600080608085870312156125115761251061200a565b5b600061251f87828801612257565b945050602061253087828801612257565b9350506040612541878288016121a2565b925050606085013567ffffffffffffffff8111156125625761256161200f565b5b61256e878288016124c9565b91505092959194509250565b600080604083850312156125915761259061200a565b5b600061259f85828601612257565b92505060206125b085828601612257565b9150509250929050565b600067ffffffffffffffff8211156125d5576125d46123cc565b5b6125de82612115565b9050602081019050919050565b60006125fe6125f9846125ba565b61242c565b90508281526020810184848401111561261a576126196123c7565b5b612625848285612478565b509392505050565b600082601f830112612642576126416123c2565b5b81356126528482602086016125eb565b91505092915050565b6000602082840312156126715761267061200a565b5b600082013567ffffffffffffffff81111561268f5761268e61200f565b5b61269b8482850161262d565b91505092915050565b7f4e487b7100000000000000000000000000000000000000000000000000000000600052602260045260246000fd5b600060028204905060018216806126eb57607f821691505b6020821081036126fe576126fd6126a4565b5b50919050565b7f4552433732313a20617070726f76616c20746f2063757272656e74206f776e6560008201527f7200000000000000000000000000000000000000000000000000000000000000602082015250565b60006127606021836120da565b915061276b82612704565b604082019050919050565b6000602082019050818103600083015261278f81612753565b9050919050565b7f4552433732313a20617070726f76652063616c6c6572206973206e6f7420746f60008201527f6b656e206f776e6572206f7220617070726f76656420666f7220616c6c000000602082015250565b60006127f2603d836120da565b91506127fd82612796565b604082019050919050565b60006020820190508181036000830152612821816127e5565b9050919050565b7f4552433732313a2063616c6c6572206973206e6f7420746f6b656e206f776e6560008201527f72206f7220617070726f76656400000000000000000000000000000000000000602082015250565b6000612884602d836120da565b915061288f82612828565b604082019050919050565b600060208201905081810360008301526128b381612877565b9050919050565b7f4552433732313a20696e76616c696420746f6b656e2049440000000000000000600082015250565b60006128f06018836120da565b91506128fb826128ba565b602082019050919050565b6000602082019050818103600083015261291f816128e3565b9050919050565b7f4552433732313a2061646472657373207a65726f206973206e6f74206120766160008201527f6c6964206f776e65720000000000000000000000000000000000000000000000602082015250565b60006129826029836120da565b915061298d82612926565b604082019050919050565b600060208201905081810360008301526129b181612975565b9050919050565b600081905092915050565b60006129ce826120cf565b6129d881856129b8565b93506129e88185602086016120eb565b80840191505092915050565b6000612a0082856129c3565b9150612a0c82846129c3565b91508190509392505050565b7f4e487b7100000000000000000000000000000000000000000000000000000000600052601160045260246000fd5b6000612a5282612181565b9150612a5d83612181565b9250828201905080821115612a7557612a74612a18565b5b92915050565b6000612a8682612181565b91507fffffffffffffffffffffffffffffffffffffffffffffffffffffffffffffffff8203612ab857612ab7612a18565b5b600182019050919050565b7f4f776e61626c653a206e6577206f776e657220697320746865207a65726f206160008201527f6464726573730000000000000000000000000000000000000000000000000000602082015250565b6000612b1f6026836120da565b9150612b2a82612ac3565b604082019050919050565b60006020820190508181036000830152612b4e81612b12565b9050919050565b7f4d696e74696e672077696e646f772068617320636c6f73656400000000000000600082015250565b6000612b8b6019836120da565b9150612b9682612b55565b602082019050919050565b60006020820190508181036000830152612bba81612b7e565b9050919050565b7f596f75206861766520616c7265616479206d696e74656420616e204e46540000600082015250565b6000612bf7601e836120da565b9150612c0282612bc1565b602082019050919050565b60006020820190508181036000830152612c2681612bea565b9050919050565b7f416c6c204e4654732068617665206265656e206d696e74656400000000000000600082015250565b6000612c636019836120da565b9150612c6e82612c2d565b602082019050919050565b60006020820190508181036000830152612c9281612c56565b9050919050565b6000604082019050612cae60008301856122ff565b8181036020830152612cc08184612126565b90509392505050565b7f4552433732313a207472616e736665722066726f6d20696e636f72726563742060008201527f6f776e6572000000000000000000000000000000000000000000000000000000602082015250565b6000612d256025836120da565b9150612d3082612cc9565b604082019050919050565b60006020820190508181036000830152612d5481612d18565b9050919050565b7f4552433732313a207472616e7366657220746f20746865207a65726f2061646460008201527f7265737300000000000000000000000000000000000000000000000000000000602082015250565b6000612db76024836120da565b9150612dc282612d5b565b604082019050919050565b60006020820190508181036000830152612de681612daa565b9050919050565b7f4f776e61626c653a2063616c6c6572206973206e6f7420746865206f776e6572600082015250565b6000612e236020836120da565b9150612e2e82612ded565b602082019050919050565b60006020820190508181036000830152612e5281612e16565b9050919050565b7f4552433732313a20617070726f766520746f2063616c6c657200000000000000600082015250565b6000612e8f6019836120da565b9150612e9a82612e59565b602082019050919050565b60006020820190508181036000830152612ebe81612e82565b9050919050565b7f4552433732313a207472616e7366657220746f206e6f6e20455243373231526560008201527f63656976657220696d706c656d656e7465720000000000000000000000000000602082015250565b6000612f216032836120da565b9150612f2c82612ec5565b604082019050919050565b60006020820190508181036000830152612f5081612f14565b9050919050565b7f45524337323155524953746f726167653a2055524920736574206f66206e6f6e60008201527f6578697374656e7420746f6b656e000000000000000000000000000000000000602082015250565b6000612fb3602e836120da565b9150612fbe82612f57565b604082019050919050565b60006020820190508181036000830152612fe281612fa6565b9050919050565b60008190508160005260206000209050919050565b60006020601f8301049050919050565b600082821b905092915050565b60006008830261304b7fffffffffffffffffffffffffffffffffffffffffffffffffffffffffffffffff8261300e565b613055868361300e565b95508019841693508086168417925050509392505050565b6000819050919050565b600061309261308d61308884612181565b61306d565b612181565b9050919050565b6000819050919050565b6130ac83613077565b6130c06130b882613099565b84845461301b565b825550505050565b600090565b6130d56130c8565b6130e08184846130a3565b505050565b5b81811015613104576130f96000826130cd565b6001810190506130e6565b5050565b601f8211156131495761311a81612fe9565b61312384612ffe565b81016020851015613132578190505b61314661313e85612ffe565b8301826130e5565b50505b505050565b600082821c905092915050565b600061316c6000198460080261314e565b1980831691505092915050565b6000613185838361315b565b9150826002028217905092915050565b61319e826120cf565b67ffffffffffffffff8111156131b7576131b66123cc565b5b6131c182546126d3565b6131cc828285613108565b600060209050601f8311600181146131ff57600084156131ed578287015190505b6131f78582613179565b86555061325f565b601f19841661320d86612fe9565b60005b8281101561323557848901518255600182019150602085019450602081019050613210565b86831015613252578489015161324e601f89168261315b565b8355505b6001600288020188555050505b505050505050565b600081519050919050565b600082825260208201905092915050565b600061328e82613267565b6132988185613272565b93506132a88185602086016120eb565b6132b181612115565b840191505092915050565b60006080820190506132d16000830187612216565b6132de6020830186612216565b6132eb60408301856122ff565b81810360608301526132fd8184613283565b905095945050505050565b60008151905061331781612040565b92915050565b6000602082840312156133335761333261200a565b5b600061334184828501613308565b91505092915050565b7f4e487b7100000000000000000000000000000000000000000000000000000000600052601260045260246000fd5b7f4552433732313a206d696e7420746f20746865207a65726f2061646472657373600082015250565b60006133af6020836120da565b91506133ba82613379565b602082019050919050565b600060208201905081810360008301526133de816133a2565b9050919050565b7f4552433732313a20746f6b656e20616c7265616479206d696e74656400000000600082015250565b600061341b601c836120da565b9150613426826133e5565b602082019050919050565b6000602082019050818103600083015261344a8161340e565b905091905056fea26469706673582212203e5f4bc422caf5cd7b14aeab5d2e6a572efc1a47499150a8e0da57abfee39d8e64736f6c63430008120033",
  "linkReferences": {},
  "deployedLinkReferences": {}
}