{
  "_format": "hh-sol-artifact-1",
  "contractName": "NFTCollection",
  "sourceName": "contracts/NFTCollection.sol",
  "abi": [
    {
      "inputs": [
        {
          "internalType": "string",
          "name": "name_",
          "type": "string"
        },
        {
          "internalType": "string",
          "name": "symbol_",
          "type": "string"
        },
        {
          "internalType": "uint256",
          "name": "_maxNFTs",
          "type": "uint256"
        },
        {
          "internalType": "uint256",
          "name": "_mintWindowStart",
          "type": "uint256"
        },
        {
          "internalType": "uint256",
          "name": "_mintWindowEnd",
          "type": "uint256"
        }
      ],
      "stateMutability": "nonpayable",
      "type": "constructor"
    },
    {
      "anonymous": false,
      "inputs": [
        {
          "indexed": true,
          "internalType": "address",
          "name": "owner",
          "type": "address"
        },
        {
          "indexed": true,
          "internalType": "address",
          "name": "approved",
          "type": "address"
        },
        {
          "indexed": true,
          "internalType": "uint256",
          "name": "tokenId",
          "type": "uint256"
        }
      ],
      "name": "Approval",
      "type": "event"
    },
    {
      "anonymous": false,
      "inputs": [
        {
          "indexed": true,
          "internalType": "address",
          "name": "owner",
          "type": "address"
        },
        {
          "indexed": true,
          "internalType": "address",
          "name": "operator",
          "type": "address"
        },
        {
          "indexed": false,
          "internalType": "bool",
          "name": "approved",
          "type": "bool"
        }
      ],
      "name": "ApprovalForAll",
      "type": "event"
    },
    {
      "anonymous": false,
      "inputs": [
        {
          "indexed": false,
          "internalType": "uint256",
          "name": "tokenId",
          "type": "uint256"
        },
        {
          "indexed": false,
          "internalType": "string",
          "name": "name",
          "type": "string"
        },
        {
          "indexed": false,
          "internalType": "string",
          "name": "description",
          "type": "string"
        },
        {
          "indexed": false,
          "internalType": "string",
          "name": "image",
          "type": "string"
        }
      ],
      "name": "Minted",
      "type": "event"
    },
    {
      "anonymous": false,
      "inputs": [
        {
          "indexed": true,
          "internalType": "address",
          "name": "from",
          "type": "address"
        },
        {
          "indexed": true,
          "internalType": "address",
          "name": "to",
          "type": "address"
        },
        {
          "indexed": true,
          "internalType": "uint256",
          "name": "tokenId",
          "type": "uint256"
        }
      ],
      "name": "Transfer",
      "type": "event"
    },
    {
      "inputs": [
        {
          "internalType": "address",
          "name": "to",
          "type": "address"
        },
        {
          "internalType": "uint256",
          "name": "tokenId",
          "type": "uint256"
        }
      ],
      "name": "approve",
      "outputs": [],
      "stateMutability": "nonpayable",
      "type": "function"
    },
    {
      "inputs": [
        {
          "internalType": "address",
          "name": "owner",
          "type": "address"
        }
      ],
      "name": "balanceOf",
      "outputs": [
        {
          "internalType": "uint256",
          "name": "",
          "type": "uint256"
        }
      ],
      "stateMutability": "view",
      "type": "function"
    },
    {
      "inputs": [
        {
          "internalType": "uint256",
          "name": "tokenId",
          "type": "uint256"
        }
      ],
      "name": "getApproved",
      "outputs": [
        {
          "internalType": "address",
          "name": "",
          "type": "address"
        }
      ],
      "stateMutability": "view",
      "type": "function"
    },
    {
      "inputs": [],
      "name": "hasMinted",
      "outputs": [
        {
          "internalType": "bool",
          "name": "",
          "type": "bool"
        }
      ],
      "stateMutability": "view",
      "type": "function"
    },
    {
      "inputs": [
        {
          "internalType": "address",
          "name": "owner",
          "type": "address"
        },
        {
          "internalType": "address",
          "name": "operator",
          "type": "address"
        }
      ],
      "name": "isApprovedForAll",
      "outputs": [
        {
          "internalType": "bool",
          "name": "",
          "type": "bool"
        }
      ],
      "stateMutability": "view",
      "type": "function"
    },
    {
      "inputs": [],
      "name": "maxNFTs",
      "outputs": [
        {
          "internalType": "uint256",
          "name": "",
          "type": "uint256"
        }
      ],
      "stateMutability": "view",
      "type": "function"
    },
    {
      "inputs": [
        {
          "internalType": "string",
          "name": "name",
          "type": "string"
        },
        {
          "internalType": "string",
          "name": "description",
          "type": "string"
        },
        {
          "internalType": "string",
          "name": "image",
          "type": "string"
        }
      ],
      "name": "mintNFT",
      "outputs": [],
      "stateMutability": "nonpayable",
      "type": "function"
    },
    {
      "inputs": [],
      "name": "mintWindowEnd",
      "outputs": [
        {
          "internalType": "uint256",
          "name": "",
          "type": "uint256"
        }
      ],
      "stateMutability": "view",
      "type": "function"
    },
    {
      "inputs": [],
      "name": "mintWindowStart",
      "outputs": [
        {
          "internalType": "uint256",
          "name": "",
          "type": "uint256"
        }
      ],
      "stateMutability": "view",
      "type": "function"
    },
    {
      "inputs": [],
      "name": "name",
      "outputs": [
        {
          "internalType": "string",
          "name": "",
          "type": "string"
        }
      ],
      "stateMutability": "view",
      "type": "function"
    },
    {
      "inputs": [
        {
          "internalType": "uint256",
          "name": "tokenId",
          "type": "uint256"
        }
      ],
      "name": "ownerOf",
      "outputs": [
        {
          "internalType": "address",
          "name": "",
          "type": "address"
        }
      ],
      "stateMutability": "view",
      "type": "function"
    },
    {
      "inputs": [
        {
          "internalType": "address",
          "name": "from",
          "type": "address"
        },
        {
          "internalType": "address",
          "name": "to",
          "type": "address"
        },
        {
          "internalType": "uint256",
          "name": "tokenId",
          "type": "uint256"
        }
      ],
      "name": "safeTransferFrom",
      "outputs": [],
      "stateMutability": "nonpayable",
      "type": "function"
    },
    {
      "inputs": [
        {
          "internalType": "address",
          "name": "from",
          "type": "address"
        },
        {
          "internalType": "address",
          "name": "to",
          "type": "address"
        },
        {
          "internalType": "uint256",
          "name": "tokenId",
          "type": "uint256"
        },
        {
          "internalType": "bytes",
          "name": "data",
          "type": "bytes"
        }
      ],
      "name": "safeTransferFrom",
      "outputs": [],
      "stateMutability": "nonpayable",
      "type": "function"
    },
    {
      "inputs": [
        {
          "internalType": "address",
          "name": "operator",
          "type": "address"
        },
        {
          "internalType": "bool",
          "name": "approved",
          "type": "bool"
        }
      ],
      "name": "setApprovalForAll",
      "outputs": [],
      "stateMutability": "nonpayable",
      "type": "function"
    },
    {
      "inputs": [
        {
          "internalType": "bytes4",
          "name": "interfaceId",
          "type": "bytes4"
        }
      ],
      "name": "supportsInterface",
      "outputs": [
        {
          "internalType": "bool",
          "name": "",
          "type": "bool"
        }
      ],
      "stateMutability": "view",
      "type": "function"
    },
    {
      "inputs": [],
      "name": "symbol",
      "outputs": [
        {
          "internalType": "string",
          "name": "",
          "type": "string"
        }
      ],
      "stateMutability": "view",
      "type": "function"
    },
    {
      "inputs": [
        {
          "internalType": "uint256",
          "name": "tokenId",
          "type": "uint256"
        }
      ],
      "name": "tokenURI",
      "outputs": [
        {
          "internalType": "string",
          "name": "",
          "type": "string"
        }
      ],
      "stateMutability": "view",
      "type": "function"
    },
    {
      "inputs": [
        {
          "internalType": "address",
          "name": "from",
          "type": "address"
        },
        {
          "internalType": "address",
          "name": "to",
          "type": "address"
        },
        {
          "internalType": "uint256",
          "name": "tokenId",
          "type": "uint256"
        }
      ],
      "name": "transferFrom",
      "outputs": [],
      "stateMutability": "nonpayable",
      "type": "function"
    }
  ],
  "bytecode": "0x60806040523480156200001157600080fd5b506040516200399538038062003995833981810160405281019062000037919062000305565b848481600090816200004a91906200060c565b5080600190816200005c91906200060c565b5050506200007182826200011960201b60201c565b620000b3576040517f08c379a0000000000000000000000000000000000000000000000000000000008152600401620000aa9062000754565b60405180910390fd5b60008311620000f9576040517f08c379a0000000000000000000000000000000000000000000000000000000008152600401620000f090620007c6565b60405180910390fd5b826008819055508160098190555080600a819055505050505050620007e8565b60008042905082841080156200012e57508281105b91505092915050565b6000604051905090565b600080fd5b600080fd5b600080fd5b600080fd5b6000601f19601f8301169050919050565b7f4e487b7100000000000000000000000000000000000000000000000000000000600052604160045260246000fd5b620001a08262000155565b810181811067ffffffffffffffff82111715620001c257620001c162000166565b5b80604052505050565b6000620001d762000137565b9050620001e5828262000195565b919050565b600067ffffffffffffffff82111562000208576200020762000166565b5b620002138262000155565b9050602081019050919050565b60005b838110156200024057808201518184015260208101905062000223565b60008484015250505050565b6000620002636200025d84620001ea565b620001cb565b90508281526020810184848401111562000282576200028162000150565b5b6200028f84828562000220565b509392505050565b600082601f830112620002af57620002ae6200014b565b5b8151620002c18482602086016200024c565b91505092915050565b6000819050919050565b620002df81620002ca565b8114620002eb57600080fd5b50565b600081519050620002ff81620002d4565b92915050565b600080600080600060a0868803121562000324576200032362000141565b5b600086015167ffffffffffffffff81111562000345576200034462000146565b5b620003538882890162000297565b955050602086015167ffffffffffffffff81111562000377576200037662000146565b5b620003858882890162000297565b94505060406200039888828901620002ee565b9350506060620003ab88828901620002ee565b9250506080620003be88828901620002ee565b9150509295509295909350565b600081519050919050565b7f4e487b7100000000000000000000000000000000000000000000000000000000600052602260045260246000fd5b600060028204905060018216806200041e57607f821691505b602082108103620004345762000433620003d6565b5b50919050565b60008190508160005260206000209050919050565b60006020601f8301049050919050565b600082821b905092915050565b6000600883026200049e7fffffffffffffffffffffffffffffffffffffffffffffffffffffffffffffffff826200045f565b620004aa86836200045f565b95508019841693508086168417925050509392505050565b6000819050919050565b6000620004ed620004e7620004e184620002ca565b620004c2565b620002ca565b9050919050565b6000819050919050565b6200050983620004cc565b620005216200051882620004f4565b8484546200046c565b825550505050565b600090565b6200053862000529565b62000545818484620004fe565b505050565b5b818110156200056d57620005616000826200052e565b6001810190506200054b565b5050565b601f821115620005bc5762000586816200043a565b62000591846200044f565b81016020851015620005a1578190505b620005b9620005b0856200044f565b8301826200054a565b50505b505050565b600082821c905092915050565b6000620005e160001984600802620005c1565b1980831691505092915050565b6000620005fc8383620005ce565b9150826002028217905092915050565b6200061782620003cb565b67ffffffffffffffff81111562000633576200063262000166565b5b6200063f825462000405565b6200064c82828562000571565b600060209050601f8311600181146200068457600084156200066f578287015190505b6200067b8582620005ee565b865550620006eb565b601f19841662000694866200043a565b60005b82811015620006be5784890151825560018201915060208501945060208101905062000697565b86831015620006de5784890151620006da601f891682620005ce565b8355505b6001600288020188555050505b505050505050565b600082825260208201905092915050565b7f496e76616c69642074696d652077696e646f7700000000000000000000000000600082015250565b60006200073c601383620006f3565b9150620007498262000704565b602082019050919050565b600060208201905081810360008301526200076f816200072d565b9050919050565b7f496e76616c6964206d61784e46542076616c7565000000000000000000000000600082015250565b6000620007ae601483620006f3565b9150620007bb8262000776565b602082019050919050565b60006020820190508181036000830152620007e1816200079f565b9050919050565b61319d80620007f86000396000f3fe608060405234801561001057600080fd5b50600436106101165760003560e01c80634e9e1ec6116100a25780639ea17dcd116100715780639ea17dcd146102e1578063a22cb465146102ff578063b88d4fde1461031b578063c87b56dd14610337578063e985e9c51461036757610116565b80634e9e1ec6146102455780636352211e1461026357806370a082311461029357806395d89b41146102c357610116565b80630c3b7b72116100e95780630c3b7b72146101b557806322ef6975146101d157806323b872dd146101ef578063274d9b851461020b57806342842e0e1461022957610116565b806301ffc9a71461011b57806306fdde031461014b578063081812fc14610169578063095ea7b314610199575b600080fd5b61013560048036038101906101309190611cb4565b610397565b6040516101429190611cfc565b60405180910390f35b610153610479565b6040516101609190611da7565b60405180910390f35b610183600480360381019061017e9190611dff565b61050b565b6040516101909190611e6d565b60405180910390f35b6101b360048036038101906101ae9190611eb4565b610551565b005b6101cf60048036038101906101ca9190612029565b610668565b005b6101d961087f565b6040516101e69190611cfc565b60405180910390f35b610209600480360381019061020491906120d0565b6108d3565b005b610213610933565b6040516102209190612132565b60405180910390f35b610243600480360381019061023e91906120d0565b610939565b005b61024d610959565b60405161025a9190612132565b60405180910390f35b61027d60048036038101906102789190611dff565b61095f565b60405161028a9190611e6d565b60405180910390f35b6102ad60048036038101906102a8919061214d565b6109e5565b6040516102ba9190612132565b60405180910390f35b6102cb610a9c565b6040516102d89190611da7565b60405180910390f35b6102e9610b2e565b6040516102f69190612132565b60405180910390f35b610319600480360381019061031491906121a6565b610b34565b005b61033560048036038101906103309190612287565b610b4a565b005b610351600480360381019061034c9190611dff565b610bac565b60405161035e9190611da7565b60405180910390f35b610381600480360381019061037c919061230a565b610bbe565b60405161038e9190611cfc565b60405180910390f35b60007f80ac58cd000000000000000000000000000000000000000000000000000000007bffffffffffffffffffffffffffffffffffffffffffffffffffffffff1916827bffffffffffffffffffffffffffffffffffffffffffffffffffffffff1916148061046257507f5b5e139f000000000000000000000000000000000000000000000000000000007bffffffffffffffffffffffffffffffffffffffffffffffffffffffff1916827bffffffffffffffffffffffffffffffffffffffffffffffffffffffff1916145b80610472575061047182610c52565b5b9050919050565b60606000805461048890612379565b80601f01602080910402602001604051908101604052809291908181526020018280546104b490612379565b80156105015780601f106104d657610100808354040283529160200191610501565b820191906000526020600020905b8154815290600101906020018083116104e457829003601f168201915b5050505050905090565b600061051682610cbc565b6004600083815260200190815260200160002060009054906101000a900473ffffffffffffffffffffffffffffffffffffffff169050919050565b600061055c8261095f565b90508073ffffffffffffffffffffffffffffffffffffffff168373ffffffffffffffffffffffffffffffffffffffff16036105cc576040517f08c379a00000000000000000000000000000000000000000000000000000000081526004016105c39061241c565b60405180910390fd5b8073ffffffffffffffffffffffffffffffffffffffff166105eb610d07565b73ffffffffffffffffffffffffffffffffffffffff16148061061a575061061981610614610d07565b610bbe565b5b610659576040517f08c379a0000000000000000000000000000000000000000000000000000000008152600401610650906124ae565b60405180910390fd5b6106638383610d0f565b505050565b610676600954600a54610dc8565b6106b5576040517f08c379a00000000000000000000000000000000000000000000000000000000081526004016106ac9061251a565b60405180910390fd5b600b60003373ffffffffffffffffffffffffffffffffffffffff1673ffffffffffffffffffffffffffffffffffffffff16815260200190815260200160002060009054906101000a900460ff1615610742576040517f08c379a000000000000000000000000000000000000000000000000000000000815260040161073990612586565b60405180910390fd5b60085461074f6007610de5565b1061078f576040517f08c379a0000000000000000000000000000000000000000000000000000000008152600401610786906125f2565b60405180910390fd5b6107996007610df3565b60006107a56007610de5565b90506107b13382610e09565b60008484846040516020016107c8939291906127ca565b60405160208183030381529060405290506107e38282610e27565b6001600b60003373ffffffffffffffffffffffffffffffffffffffff1673ffffffffffffffffffffffffffffffffffffffff16815260200190815260200160002060006101000a81548160ff0219169083151502179055507f95d309877521b5d821abd56901d5b9e7d97fdd7f51d831c8c532ea5ba90de3cd82868686604051610870949392919061283d565b60405180910390a15050505050565b6000600b60003373ffffffffffffffffffffffffffffffffffffffff1673ffffffffffffffffffffffffffffffffffffffff16815260200190815260200160002060009054906101000a900460ff16905090565b6108e46108de610d07565b82610e94565b610923576040517f08c379a000000000000000000000000000000000000000000000000000000000815260040161091a90612909565b60405180910390fd5b61092e838383610f29565b505050565b60095481565b61095483838360405180602001604052806000815250610b4a565b505050565b60085481565b60008061096b83611222565b9050600073ffffffffffffffffffffffffffffffffffffffff168173ffffffffffffffffffffffffffffffffffffffff16036109dc576040517f08c379a00000000000000000000000000000000000000000000000000000000081526004016109d390612975565b60405180910390fd5b80915050919050565b60008073ffffffffffffffffffffffffffffffffffffffff168273ffffffffffffffffffffffffffffffffffffffff1603610a55576040517f08c379a0000000000000000000000000000000000000000000000000000000008152600401610a4c90612a07565b60405180910390fd5b600360008373ffffffffffffffffffffffffffffffffffffffff1673ffffffffffffffffffffffffffffffffffffffff168152602001908152602001600020549050919050565b606060018054610aab90612379565b80601f0160208091040260200160405190810160405280929190818152602001828054610ad790612379565b8015610b245780601f10610af957610100808354040283529160200191610b24565b820191906000526020600020905b815481529060010190602001808311610b0757829003601f168201915b5050505050905090565b600a5481565b610b46610b3f610d07565b838361125f565b5050565b610b5b610b55610d07565b83610e94565b610b9a576040517f08c379a0000000000000000000000000000000000000000000000000000000008152600401610b9190612909565b60405180910390fd5b610ba6848484846113cb565b50505050565b6060610bb782611427565b9050919050565b6000600560008473ffffffffffffffffffffffffffffffffffffffff1673ffffffffffffffffffffffffffffffffffffffff16815260200190815260200160002060008373ffffffffffffffffffffffffffffffffffffffff1673ffffffffffffffffffffffffffffffffffffffff16815260200190815260200160002060009054906101000a900460ff16905092915050565b60007f01ffc9a7000000000000000000000000000000000000000000000000000000007bffffffffffffffffffffffffffffffffffffffffffffffffffffffff1916827bffffffffffffffffffffffffffffffffffffffffffffffffffffffff1916149050919050565b610cc581611539565b610d04576040517f08c379a0000000000000000000000000000000000000000000000000000000008152600401610cfb90612975565b60405180910390fd5b50565b600033905090565b816004600083815260200190815260200160002060006101000a81548173ffffffffffffffffffffffffffffffffffffffff021916908373ffffffffffffffffffffffffffffffffffffffff160217905550808273ffffffffffffffffffffffffffffffffffffffff16610d828361095f565b73ffffffffffffffffffffffffffffffffffffffff167f8c5be1e5ebec7d5bd14f71427d1e84f3dd0314c0f7b2291e5b200ac8c7c3b92560405160405180910390a45050565b6000804290508284108015610ddc57508281105b91505092915050565b600081600001549050919050565b6001816000016000828254019250508190555050565b610e2382826040518060200160405280600081525061157a565b5050565b610e3082611539565b610e6f576040517f08c379a0000000000000000000000000000000000000000000000000000000008152600401610e6690612a99565b60405180910390fd5b80600660008481526020019081526020016000209081610e8f9190612c65565b505050565b600080610ea08361095f565b90508073ffffffffffffffffffffffffffffffffffffffff168473ffffffffffffffffffffffffffffffffffffffff161480610ee25750610ee18185610bbe565b5b80610f2057508373ffffffffffffffffffffffffffffffffffffffff16610f088461050b565b73ffffffffffffffffffffffffffffffffffffffff16145b91505092915050565b8273ffffffffffffffffffffffffffffffffffffffff16610f498261095f565b73ffffffffffffffffffffffffffffffffffffffff1614610f9f576040517f08c379a0000000000000000000000000000000000000000000000000000000008152600401610f9690612da9565b60405180910390fd5b600073ffffffffffffffffffffffffffffffffffffffff168273ffffffffffffffffffffffffffffffffffffffff160361100e576040517f08c379a000000000000000000000000000000000000000000000000000000000815260040161100590612e3b565b60405180910390fd5b61101b83838360016115d5565b8273ffffffffffffffffffffffffffffffffffffffff1661103b8261095f565b73ffffffffffffffffffffffffffffffffffffffff1614611091576040517f08c379a000000000000000000000000000000000000000000000000000000000815260040161108890612da9565b60405180910390fd5b6004600082815260200190815260200160002060006101000a81549073ffffffffffffffffffffffffffffffffffffffff02191690556001600360008573ffffffffffffffffffffffffffffffffffffffff1673ffffffffffffffffffffffffffffffffffffffff168152602001908152602001600020600082825403925050819055506001600360008473ffffffffffffffffffffffffffffffffffffffff1673ffffffffffffffffffffffffffffffffffffffff16815260200190815260200160002060008282540192505081905550816002600083815260200190815260200160002060006101000a81548173ffffffffffffffffffffffffffffffffffffffff021916908373ffffffffffffffffffffffffffffffffffffffff160217905550808273ffffffffffffffffffffffffffffffffffffffff168473ffffffffffffffffffffffffffffffffffffffff167fddf252ad1be2c89b69c2b068fc378daa952ba7f163c4a11628f55a4df523b3ef60405160405180910390a461121d83838360016115db565b505050565b60006002600083815260200190815260200160002060009054906101000a900473ffffffffffffffffffffffffffffffffffffffff169050919050565b8173ffffffffffffffffffffffffffffffffffffffff168373ffffffffffffffffffffffffffffffffffffffff16036112cd576040517f08c379a00000000000000000000000000000000000000000000000000000000081526004016112c490612ea7565b60405180910390fd5b80600560008573ffffffffffffffffffffffffffffffffffffffff1673ffffffffffffffffffffffffffffffffffffffff16815260200190815260200160002060008473ffffffffffffffffffffffffffffffffffffffff1673ffffffffffffffffffffffffffffffffffffffff16815260200190815260200160002060006101000a81548160ff0219169083151502179055508173ffffffffffffffffffffffffffffffffffffffff168373ffffffffffffffffffffffffffffffffffffffff167f17307eab39ab6107e8899845ad3d59bd9653f200f220920489ca2b5937696c31836040516113be9190611cfc565b60405180910390a3505050565b6113d6848484610f29565b6113e2848484846115e1565b611421576040517f08c379a000000000000000000000000000000000000000000000000000000000815260040161141890612f39565b60405180910390fd5b50505050565b606061143282610cbc565b600060066000848152602001908152602001600020805461145290612379565b80601f016020809104026020016040519081016040528092919081815260200182805461147e90612379565b80156114cb5780601f106114a0576101008083540402835291602001916114cb565b820191906000526020600020905b8154815290600101906020018083116114ae57829003601f168201915b5050505050905060006114dc611768565b905060008151036114f1578192505050611534565b60008251111561152657808260405160200161150e929190612f59565b60405160208183030381529060405292505050611534565b61152f8461177f565b925050505b919050565b60008073ffffffffffffffffffffffffffffffffffffffff1661155b83611222565b73ffffffffffffffffffffffffffffffffffffffff1614159050919050565b61158483836117e7565b61159160008484846115e1565b6115d0576040517f08c379a00000000000000000000000000000000000000000000000000000000081526004016115c790612f39565b60405180910390fd5b505050565b50505050565b50505050565b60006116028473ffffffffffffffffffffffffffffffffffffffff16611a04565b1561175b578373ffffffffffffffffffffffffffffffffffffffff1663150b7a0261162b610d07565b8786866040518563ffffffff1660e01b815260040161164d9493929190612fd2565b6020604051808303816000875af192505050801561168957506040513d601f19601f820116820180604052508101906116869190613033565b60015b61170b573d80600081146116b9576040519150601f19603f3d011682016040523d82523d6000602084013e6116be565b606091505b506000815103611703576040517f08c379a00000000000000000000000000000000000000000000000000000000081526004016116fa90612f39565b60405180910390fd5b805181602001fd5b63150b7a0260e01b7bffffffffffffffffffffffffffffffffffffffffffffffffffffffff1916817bffffffffffffffffffffffffffffffffffffffffffffffffffffffff191614915050611760565b600190505b949350505050565b606060405180602001604052806000815250905090565b606061178a82610cbc565b6000611794611768565b905060008151116117b457604051806020016040528060008152506117df565b806117be84611a27565b6040516020016117cf929190612f59565b6040516020818303038152906040525b915050919050565b600073ffffffffffffffffffffffffffffffffffffffff168273ffffffffffffffffffffffffffffffffffffffff1603611856576040517f08c379a000000000000000000000000000000000000000000000000000000000815260040161184d906130ac565b60405180910390fd5b61185f81611539565b1561189f576040517f08c379a000000000000000000000000000000000000000000000000000000000815260040161189690613118565b60405180910390fd5b6118ad6000838360016115d5565b6118b681611539565b156118f6576040517f08c379a00000000000000000000000000000000000000000000000000000000081526004016118ed90613118565b60405180910390fd5b6001600360008473ffffffffffffffffffffffffffffffffffffffff1673ffffffffffffffffffffffffffffffffffffffff16815260200190815260200160002060008282540192505081905550816002600083815260200190815260200160002060006101000a81548173ffffffffffffffffffffffffffffffffffffffff021916908373ffffffffffffffffffffffffffffffffffffffff160217905550808273ffffffffffffffffffffffffffffffffffffffff16600073ffffffffffffffffffffffffffffffffffffffff167fddf252ad1be2c89b69c2b068fc378daa952ba7f163c4a11628f55a4df523b3ef60405160405180910390a4611a006000838360016115db565b5050565b6000808273ffffffffffffffffffffffffffffffffffffffff163b119050919050565b606060006001611a3684611af5565b01905060008167ffffffffffffffff811115611a5557611a54611efe565b5b6040519080825280601f01601f191660200182016040528015611a875781602001600182028036833780820191505090505b509050600082602001820190505b600115611aea578080600190039150507f3031323334353637383961626364656600000000000000000000000000000000600a86061a8153600a8581611ade57611add613138565b5b04945060008503611a95575b819350505050919050565b600080600090507a184f03e93ff9f4daa797ed6e38ed64bf6a1f0100000000000000008310611b53577a184f03e93ff9f4daa797ed6e38ed64bf6a1f0100000000000000008381611b4957611b48613138565b5b0492506040810190505b6d04ee2d6d415b85acef81000000008310611b90576d04ee2d6d415b85acef81000000008381611b8657611b85613138565b5b0492506020810190505b662386f26fc100008310611bbf57662386f26fc100008381611bb557611bb4613138565b5b0492506010810190505b6305f5e1008310611be8576305f5e1008381611bde57611bdd613138565b5b0492506008810190505b6127108310611c0d576127108381611c0357611c02613138565b5b0492506004810190505b60648310611c305760648381611c2657611c25613138565b5b0492506002810190505b600a8310611c3f576001810190505b80915050919050565b6000604051905090565b600080fd5b600080fd5b60007fffffffff0000000000000000000000000000000000000000000000000000000082169050919050565b611c9181611c5c565b8114611c9c57600080fd5b50565b600081359050611cae81611c88565b92915050565b600060208284031215611cca57611cc9611c52565b5b6000611cd884828501611c9f565b91505092915050565b60008115159050919050565b611cf681611ce1565b82525050565b6000602082019050611d116000830184611ced565b92915050565b600081519050919050565b600082825260208201905092915050565b60005b83811015611d51578082015181840152602081019050611d36565b60008484015250505050565b6000601f19601f8301169050919050565b6000611d7982611d17565b611d838185611d22565b9350611d93818560208601611d33565b611d9c81611d5d565b840191505092915050565b60006020820190508181036000830152611dc18184611d6e565b905092915050565b6000819050919050565b611ddc81611dc9565b8114611de757600080fd5b50565b600081359050611df981611dd3565b92915050565b600060208284031215611e1557611e14611c52565b5b6000611e2384828501611dea565b91505092915050565b600073ffffffffffffffffffffffffffffffffffffffff82169050919050565b6000611e5782611e2c565b9050919050565b611e6781611e4c565b82525050565b6000602082019050611e826000830184611e5e565b92915050565b611e9181611e4c565b8114611e9c57600080fd5b50565b600081359050611eae81611e88565b92915050565b60008060408385031215611ecb57611eca611c52565b5b6000611ed985828601611e9f565b9250506020611eea85828601611dea565b9150509250929050565b600080fd5b600080fd5b7f4e487b7100000000000000000000000000000000000000000000000000000000600052604160045260246000fd5b611f3682611d5d565b810181811067ffffffffffffffff82111715611f5557611f54611efe565b5b80604052505050565b6000611f68611c48565b9050611f748282611f2d565b919050565b600067ffffffffffffffff821115611f9457611f93611efe565b5b611f9d82611d5d565b9050602081019050919050565b82818337600083830152505050565b6000611fcc611fc784611f79565b611f5e565b905082815260208101848484011115611fe857611fe7611ef9565b5b611ff3848285611faa565b509392505050565b600082601f8301126120105761200f611ef4565b5b8135612020848260208601611fb9565b91505092915050565b60008060006060848603121561204257612041611c52565b5b600084013567ffffffffffffffff8111156120605761205f611c57565b5b61206c86828701611ffb565b935050602084013567ffffffffffffffff81111561208d5761208c611c57565b5b61209986828701611ffb565b925050604084013567ffffffffffffffff8111156120ba576120b9611c57565b5b6120c686828701611ffb565b9150509250925092565b6000806000606084860312156120e9576120e8611c52565b5b60006120f786828701611e9f565b935050602061210886828701611e9f565b925050604061211986828701611dea565b9150509250925092565b61212c81611dc9565b82525050565b60006020820190506121476000830184612123565b92915050565b60006020828403121561216357612162611c52565b5b600061217184828501611e9f565b91505092915050565b61218381611ce1565b811461218e57600080fd5b50565b6000813590506121a08161217a565b92915050565b600080604083850312156121bd576121bc611c52565b5b60006121cb85828601611e9f565b92505060206121dc85828601612191565b9150509250929050565b600067ffffffffffffffff82111561220157612200611efe565b5b61220a82611d5d565b9050602081019050919050565b600061222a612225846121e6565b611f5e565b90508281526020810184848401111561224657612245611ef9565b5b612251848285611faa565b509392505050565b600082601f83011261226e5761226d611ef4565b5b813561227e848260208601612217565b91505092915050565b600080600080608085870312156122a1576122a0611c52565b5b60006122af87828801611e9f565b94505060206122c087828801611e9f565b93505060406122d187828801611dea565b925050606085013567ffffffffffffffff8111156122f2576122f1611c57565b5b6122fe87828801612259565b91505092959194509250565b6000806040838503121561232157612320611c52565b5b600061232f85828601611e9f565b925050602061234085828601611e9f565b9150509250929050565b7f4e487b7100000000000000000000000000000000000000000000000000000000600052602260045260246000fd5b6000600282049050600182168061239157607f821691505b6020821081036123a4576123a361234a565b5b50919050565b7f4552433732313a20617070726f76616c20746f2063757272656e74206f776e6560008201527f7200000000000000000000000000000000000000000000000000000000000000602082015250565b6000612406602183611d22565b9150612411826123aa565b604082019050919050565b60006020820190508181036000830152612435816123f9565b9050919050565b7f4552433732313a20617070726f76652063616c6c6572206973206e6f7420746f60008201527f6b656e206f776e6572206f7220617070726f76656420666f7220616c6c000000602082015250565b6000612498603d83611d22565b91506124a38261243c565b604082019050919050565b600060208201905081810360008301526124c78161248b565b9050919050565b7f4d696e74696e672077696e646f772068617320636c6f73656400000000000000600082015250565b6000612504601983611d22565b915061250f826124ce565b602082019050919050565b60006020820190508181036000830152612533816124f7565b9050919050565b7f596f75206861766520616c7265616479206d696e74656420616e204e46540000600082015250565b6000612570601e83611d22565b915061257b8261253a565b602082019050919050565b6000602082019050818103600083015261259f81612563565b9050919050565b7f416c6c204e4654732068617665206265656e206d696e74656400000000000000600082015250565b60006125dc601983611d22565b91506125e7826125a6565b602082019050919050565b6000602082019050818103600083015261260b816125cf565b9050919050565b600081905092915050565b7f7b226e616d65223a202200000000000000000000000000000000000000000000600082015250565b6000612653600a83612612565b915061265e8261261d565b600a82019050919050565b600061267482611d17565b61267e8185612612565b935061268e818560208601611d33565b80840191505092915050565b7f222c200000000000000000000000000000000000000000000000000000000000600082015250565b60006126d0600383612612565b91506126db8261269a565b600382019050919050565b7f226465736372697074696f6e223a202200000000000000000000000000000000600082015250565b600061271c601083612612565b9150612727826126e6565b601082019050919050565b7f22696d616765223a202200000000000000000000000000000000000000000000600082015250565b6000612768600a83612612565b915061277382612732565b600a82019050919050565b7f227d000000000000000000000000000000000000000000000000000000000000600082015250565b60006127b4600283612612565b91506127bf8261277e565b600282019050919050565b60006127d582612646565b91506127e18286612669565b91506127ec826126c3565b91506127f78261270f565b91506128038285612669565b915061280e826126c3565b91506128198261275b565b91506128258284612669565b9150612830826127a7565b9150819050949350505050565b60006080820190506128526000830187612123565b81810360208301526128648186611d6e565b905081810360408301526128788185611d6e565b9050818103606083015261288c8184611d6e565b905095945050505050565b7f4552433732313a2063616c6c6572206973206e6f7420746f6b656e206f776e6560008201527f72206f7220617070726f76656400000000000000000000000000000000000000602082015250565b60006128f3602d83611d22565b91506128fe82612897565b604082019050919050565b60006020820190508181036000830152612922816128e6565b9050919050565b7f4552433732313a20696e76616c696420746f6b656e2049440000000000000000600082015250565b600061295f601883611d22565b915061296a82612929565b602082019050919050565b6000602082019050818103600083015261298e81612952565b9050919050565b7f4552433732313a2061646472657373207a65726f206973206e6f74206120766160008201527f6c6964206f776e65720000000000000000000000000000000000000000000000602082015250565b60006129f1602983611d22565b91506129fc82612995565b604082019050919050565b60006020820190508181036000830152612a20816129e4565b9050919050565b7f45524337323155524953746f726167653a2055524920736574206f66206e6f6e60008201527f6578697374656e7420746f6b656e000000000000000000000000000000000000602082015250565b6000612a83602e83611d22565b9150612a8e82612a27565b604082019050919050565b60006020820190508181036000830152612ab281612a76565b9050919050565b60008190508160005260206000209050919050565b60006020601f8301049050919050565b600082821b905092915050565b600060088302612b1b7fffffffffffffffffffffffffffffffffffffffffffffffffffffffffffffffff82612ade565b612b258683612ade565b95508019841693508086168417925050509392505050565b6000819050919050565b6000612b62612b5d612b5884611dc9565b612b3d565b611dc9565b9050919050565b6000819050919050565b612b7c83612b47565b612b90612b8882612b69565b848454612aeb565b825550505050565b600090565b612ba5612b98565b612bb0818484612b73565b505050565b5b81811015612bd457612bc9600082612b9d565b600181019050612bb6565b5050565b601f821115612c1957612bea81612ab9565b612bf384612ace565b81016020851015612c02578190505b612c16612c0e85612ace565b830182612bb5565b50505b505050565b600082821c905092915050565b6000612c3c60001984600802612c1e565b1980831691505092915050565b6000612c558383612c2b565b9150826002028217905092915050565b612c6e82611d17565b67ffffffffffffffff811115612c8757612c86611efe565b5b612c918254612379565b612c9c828285612bd8565b600060209050601f831160018114612ccf5760008415612cbd578287015190505b612cc78582612c49565b865550612d2f565b601f198416612cdd86612ab9565b60005b82811015612d0557848901518255600182019150602085019450602081019050612ce0565b86831015612d225784890151612d1e601f891682612c2b565b8355505b6001600288020188555050505b505050505050565b7f4552433732313a207472616e736665722066726f6d20696e636f72726563742060008201527f6f776e6572000000000000000000000000000000000000000000000000000000602082015250565b6000612d93602583611d22565b9150612d9e82612d37565b604082019050919050565b60006020820190508181036000830152612dc281612d86565b9050919050565b7f4552433732313a207472616e7366657220746f20746865207a65726f2061646460008201527f7265737300000000000000000000000000000000000000000000000000000000602082015250565b6000612e25602483611d22565b9150612e3082612dc9565b604082019050919050565b60006020820190508181036000830152612e5481612e18565b9050919050565b7f4552433732313a20617070726f766520746f2063616c6c657200000000000000600082015250565b6000612e91601983611d22565b9150612e9c82612e5b565b602082019050919050565b60006020820190508181036000830152612ec081612e84565b9050919050565b7f4552433732313a207472616e7366657220746f206e6f6e20455243373231526560008201527f63656976657220696d706c656d656e7465720000000000000000000000000000602082015250565b6000612f23603283611d22565b9150612f2e82612ec7565b604082019050919050565b60006020820190508181036000830152612f5281612f16565b9050919050565b6000612f658285612669565b9150612f718284612669565b91508190509392505050565b600081519050919050565b600082825260208201905092915050565b6000612fa482612f7d565b612fae8185612f88565b9350612fbe818560208601611d33565b612fc781611d5d565b840191505092915050565b6000608082019050612fe76000830187611e5e565b612ff46020830186611e5e565b6130016040830185612123565b81810360608301526130138184612f99565b905095945050505050565b60008151905061302d81611c88565b92915050565b60006020828403121561304957613048611c52565b5b60006130578482850161301e565b91505092915050565b7f4552433732313a206d696e7420746f20746865207a65726f2061646472657373600082015250565b6000613096602083611d22565b91506130a182613060565b602082019050919050565b600060208201905081810360008301526130c581613089565b9050919050565b7f4552433732313a20746f6b656e20616c7265616479206d696e74656400000000600082015250565b6000613102601c83611d22565b915061310d826130cc565b602082019050919050565b60006020820190508181036000830152613131816130f5565b9050919050565b7f4e487b7100000000000000000000000000000000000000000000000000000000600052601260045260246000fdfea264697066735822122042ee3daeb2b7ef982bc795b9253319446bd7495bf675b8ec98f338824eaf7eb664736f6c63430008120033",
  "linkReferences": {},
  "deployedLinkReferences": {}
}